{
  "_format": "hh-sol-artifact-1",
  "contractName": "WavePortal",
  "sourceName": "contracts/WavePortal.sol",
  "abi": [
    {
      "inputs": [],
      "stateMutability": "payable",
      "type": "constructor"
    },
    {
      "anonymous": false,
      "inputs": [
        {
          "indexed": true,
          "internalType": "address",
          "name": "from",
          "type": "address"
        },
        {
          "indexed": false,
          "internalType": "string",
          "name": "message",
          "type": "string"
        },
        {
          "indexed": false,
          "internalType": "uint256",
          "name": "timestamp",
          "type": "uint256"
        }
      ],
      "name": "NewWave",
      "type": "event"
    },
    {
      "anonymous": false,
      "inputs": [
        {
          "indexed": false,
          "internalType": "address",
          "name": "receiver",
          "type": "address"
        },
        {
          "indexed": false,
          "internalType": "uint256",
          "name": "amount",
          "type": "uint256"
        }
      ],
      "name": "PrizeMoneySent",
      "type": "event"
    },
    {
      "inputs": [],
      "name": "getAllWaves",
      "outputs": [
        {
          "components": [
            {
              "internalType": "address",
              "name": "waver",
              "type": "address"
            },
            {
              "internalType": "string",
              "name": "message",
              "type": "string"
            },
            {
              "internalType": "uint256",
              "name": "timestamp",
              "type": "uint256"
            }
          ],
          "internalType": "struct WavePortal.Wave[]",
          "name": "",
          "type": "tuple[]"
        }
      ],
      "stateMutability": "view",
      "type": "function"
    },
    {
      "inputs": [],
      "name": "getBalance",
      "outputs": [
        {
          "internalType": "uint256",
          "name": "",
          "type": "uint256"
        }
      ],
      "stateMutability": "view",
      "type": "function"
    },
    {
      "inputs": [],
      "name": "owner",
      "outputs": [
        {
          "internalType": "address payable",
          "name": "",
          "type": "address"
        }
      ],
      "stateMutability": "view",
      "type": "function"
    },
    {
      "inputs": [],
      "name": "totalWaveCount",
      "outputs": [
        {
          "internalType": "uint256",
          "name": "",
          "type": "uint256"
        }
      ],
      "stateMutability": "view",
      "type": "function"
    },
    {
      "inputs": [
        {
          "internalType": "string",
          "name": "_message",
          "type": "string"
        }
      ],
      "name": "wave",
      "outputs": [],
      "stateMutability": "payable",
      "type": "function"
    },
    {
      "inputs": [
        {
          "internalType": "uint256",
          "name": "",
          "type": "uint256"
        }
      ],
      "name": "waves",
      "outputs": [
        {
          "internalType": "address",
          "name": "waver",
          "type": "address"
        },
        {
          "internalType": "string",
          "name": "message",
          "type": "string"
        },
        {
          "internalType": "uint256",
          "name": "timestamp",
          "type": "uint256"
        }
      ],
      "stateMutability": "view",
      "type": "function"
    },
    {
      "inputs": [],
      "name": "withdraw",
      "outputs": [],
      "stateMutability": "payable",
      "type": "function"
    }
  ],
  "bytecode": "0x608060405233600360006101000a81548173ffffffffffffffffffffffffffffffffffffffff021916908373ffffffffffffffffffffffffffffffffffffffff16021790555062000074604051806060016040528060248152602001620016c1602491396200007a60201b620008b71760201c565b62000272565b6200011a81604051602401620000919190620001eb565b6040516020818303038152906040527f41304fac000000000000000000000000000000000000000000000000000000007bffffffffffffffffffffffffffffffffffffffffffffffffffffffff19166020820180517bffffffffffffffffffffffffffffffffffffffffffffffffffffffff83818316178352505050506200011d60201b60201c565b50565b62000143816200013e6200014660201b62000950176200016760201b60201c565b60201c565b50565b60006a636f6e736f6c652e6c6f679050600080835160208501845afa505050565b6200017b60201b62000a3217819050919050565b7f4e487b7100000000000000000000000000000000000000000000000000000000600052605160045260246000fd5b6000620001b7826200020f565b620001c381856200021a565b9350620001d58185602086016200022b565b620001e08162000261565b840191505092915050565b60006020820190508181036000830152620002078184620001aa565b905092915050565b600081519050919050565b600082825260208201905092915050565b60005b838110156200024b5780820151818401526020810190506200022e565b838111156200025b576000848401525b50505050565b6000601f19601f8301169050919050565b61143f80620002826000396000f3fe6080604052600436106100705760003560e01c80638da5cb5b1161004e5780638da5cb5b146100c6578063bd43a908146100f1578063c781267a1461011c578063e933f5c31461015b57610070565b806312065fe0146100755780633ccfd60b146100a0578063449d46c0146100aa575b600080fd5b34801561008157600080fd5b5061008a610186565b6040516100979190610fb0565b60405180910390f35b6100a861018e565b005b6100c460048036038101906100bf9190610b81565b6102d3565b005b3480156100d257600080fd5b506100db610658565b6040516100e89190610e5a565b60405180910390f35b3480156100fd57600080fd5b5061010661067e565b6040516101139190610edc565b60405180910390f35b34801561012857600080fd5b50610143600480360381019061013e9190610bc2565b6107cf565b60405161015293929190610e75565b60405180910390f35b34801561016757600080fd5b506101706108b1565b60405161017d9190610fb0565b60405180910390f35b600047905090565b600360009054906101000a900473ffffffffffffffffffffffffffffffffffffffff1673ffffffffffffffffffffffffffffffffffffffff163373ffffffffffffffffffffffffffffffffffffffff161461021e576040517f08c379a000000000000000000000000000000000000000000000000000000000815260040161021590610f50565b60405180910390fd5b600047905060003373ffffffffffffffffffffffffffffffffffffffff168260405161024990610e30565b60006040518083038185875af1925050503d8060008114610286576040519150601f19603f3d011682016040523d82523d6000602084013e61028b565b606091505b50509050806102cf576040517f08c379a00000000000000000000000000000000000000000000000000000000081526004016102c690610f70565b60405180910390fd5b5050565b60016000808282546102e59190611092565b92505081905550600060405180606001604052803373ffffffffffffffffffffffffffffffffffffffff168152602001838152602001428152509050600181908060018154018082558091505060019003906000526020600020906003020160009091909190915060008201518160000160006101000a81548173ffffffffffffffffffffffffffffffffffffffff021916908373ffffffffffffffffffffffffffffffffffffffff16021790555060208201518160010190805190602001906103b0929190610a61565b50604082015181600201555050600066b1a2bc2ec5000090506104086040518060400160405280600381526020017f6d7367000000000000000000000000000000000000000000000000000000000081525034610971565b80341461041457600080fd5b3373ffffffffffffffffffffffffffffffffffffffff167f6728ef66814a55b797863bf8ffcd954b19cbca4ed4f0e6cf04c980705fd82c36844260405161045c929190610f20565b60405180910390a26000606460025442446104779190611092565b6104819190611092565b61048b91906111db565b90506104cc6040518060400160405280601681526020017f52616e646f6d20232067656e6572617465643a2025730000000000000000000081525082610971565b8060028190555060328110156106525761051a6040518060400160405280601b81526020017f77696e6e65722077696e6e657220636869636b656e2064696e6e6100000000008152506108b7565b60006706f05b59d3b2000090504781111561056a576040517f08c379a000000000000000000000000000000000000000000000000000000000815260040161056190610f90565b60405180910390fd5b60003373ffffffffffffffffffffffffffffffffffffffff168260405161059090610e45565b60006040518083038185875af1925050503d80600081146105cd576040519150601f19603f3d011682016040523d82523d6000602084013e6105d2565b606091505b5050905080610616576040517f08c379a000000000000000000000000000000000000000000000000000000000815260040161060d90610f70565b60405180910390fd5b7f91a1effa1fdfb2637c318a79fd134e723580ac0f2f6d001dfc2688905d7d04ab3383604051610647929190610eb3565b60405180910390a150505b50505050565b600360009054906101000a900473ffffffffffffffffffffffffffffffffffffffff1681565b60606001805480602002602001604051908101604052809291908181526020016000905b828210156107c657838290600052602060002090600302016040518060600160405290816000820160009054906101000a900473ffffffffffffffffffffffffffffffffffffffff1673ffffffffffffffffffffffffffffffffffffffff1673ffffffffffffffffffffffffffffffffffffffff16815260200160018201805461072b90611178565b80601f016020809104026020016040519081016040528092919081815260200182805461075790611178565b80156107a45780601f10610779576101008083540402835291602001916107a4565b820191906000526020600020905b81548152906001019060200180831161078757829003601f168201915b50505050508152602001600282015481525050815260200190600101906106a2565b50505050905090565b600181815481106107df57600080fd5b90600052602060002090600302016000915090508060000160009054906101000a900473ffffffffffffffffffffffffffffffffffffffff169080600101805461082890611178565b80601f016020809104026020016040519081016040528092919081815260200182805461085490611178565b80156108a15780601f10610876576101008083540402835291602001916108a1565b820191906000526020600020905b81548152906001019060200180831161088457829003601f168201915b5050505050908060020154905083565b60005481565b61094d816040516024016108cb9190610efe565b6040516020818303038152906040527f41304fac000000000000000000000000000000000000000000000000000000007bffffffffffffffffffffffffffffffffffffffffffffffffffffffff19166020820180517bffffffffffffffffffffffffffffffffffffffffffffffffffffffff8381831617835250505050610a0d565b50565b60006a636f6e736f6c652e6c6f679050600080835160208501845afa505050565b610a098282604051602401610987929190610f20565b6040516020818303038152906040527fb60e72cc000000000000000000000000000000000000000000000000000000007bffffffffffffffffffffffffffffffffffffffffffffffffffffffff19166020820180517bffffffffffffffffffffffffffffffffffffffffffffffffffffffff8381831617835250505050610a0d565b5050565b610a2481610a1c610950610a27565b63ffffffff16565b50565b610a32819050919050565b7f4e487b7100000000000000000000000000000000000000000000000000000000600052605160045260246000fd5b828054610a6d90611178565b90600052602060002090601f016020900481019282610a8f5760008555610ad6565b82601f10610aa857805160ff1916838001178555610ad6565b82800160010185558215610ad6579182015b82811115610ad5578251825591602001919060010190610aba565b5b509050610ae39190610ae7565b5090565b5b80821115610b00576000816000905550600101610ae8565b5090565b6000610b17610b1284610ff0565b610fcb565b905082815260208101848484011115610b2f57600080fd5b610b3a848285611136565b509392505050565b600082601f830112610b5357600080fd5b8135610b63848260208601610b04565b91505092915050565b600081359050610b7b816113f2565b92915050565b600060208284031215610b9357600080fd5b600082013567ffffffffffffffff811115610bad57600080fd5b610bb984828501610b42565b91505092915050565b600060208284031215610bd457600080fd5b6000610be284828501610b6c565b91505092915050565b6000610bf78383610dc2565b905092915050565b610c08816110fa565b82525050565b610c17816110e8565b82525050565b610c26816110e8565b82525050565b6000610c3782611031565b610c418185611054565b935083602082028501610c5385611021565b8060005b85811015610c8f5784840389528151610c708582610beb565b9450610c7b83611047565b925060208a01995050600181019050610c57565b50829750879550505050505092915050565b6000610cac8261103c565b610cb68185611070565b9350610cc6818560208601611145565b610ccf816112c8565b840191505092915050565b6000610ce58261103c565b610cef8185611081565b9350610cff818560208601611145565b610d08816112c8565b840191505092915050565b6000610d20601483611065565b9150610d2b826112d9565b601482019050919050565b6000610d43602e83611081565b9150610d4e82611302565b604082019050919050565b6000610d66602783611081565b9150610d7182611351565b604082019050919050565b6000610d89603583611081565b9150610d94826113a0565b604082019050919050565b6000610dac600083611065565b9150610db7826113ef565b600082019050919050565b6000606083016000830151610dda6000860182610c0e565b5060208301518482036020860152610df28282610ca1565b9150506040830151610e076040860182610e12565b508091505092915050565b610e1b8161112c565b82525050565b610e2a8161112c565b82525050565b6000610e3b82610d13565b9150819050919050565b6000610e5082610d9f565b9150819050919050565b6000602082019050610e6f6000830184610bff565b92915050565b6000606082019050610e8a6000830186610c1d565b8181036020830152610e9c8185610cda565b9050610eab6040830184610e21565b949350505050565b6000604082019050610ec86000830185610c1d565b610ed56020830184610e21565b9392505050565b60006020820190508181036000830152610ef68184610c2c565b905092915050565b60006020820190508181036000830152610f188184610cda565b905092915050565b60006040820190508181036000830152610f3a8185610cda565b9050610f496020830184610e21565b9392505050565b60006020820190508181036000830152610f6981610d36565b9050919050565b60006020820190508181036000830152610f8981610d59565b9050919050565b60006020820190508181036000830152610fa981610d7c565b9050919050565b6000602082019050610fc56000830184610e21565b92915050565b6000610fd5610fe6565b9050610fe182826111aa565b919050565b6000604051905090565b600067ffffffffffffffff82111561100b5761100a611299565b5b611014826112c8565b9050602081019050919050565b6000819050602082019050919050565b600081519050919050565b600081519050919050565b6000602082019050919050565b600082825260208201905092915050565b600081905092915050565b600082825260208201905092915050565b600082825260208201905092915050565b600061109d8261112c565b91506110a88361112c565b9250827fffffffffffffffffffffffffffffffffffffffffffffffffffffffffffffffff038211156110dd576110dc61120c565b5b828201905092915050565b60006110f38261110c565b9050919050565b60006111058261110c565b9050919050565b600073ffffffffffffffffffffffffffffffffffffffff82169050919050565b6000819050919050565b82818337600083830152505050565b60005b83811015611163578082015181840152602081019050611148565b83811115611172576000848401525b50505050565b6000600282049050600182168061119057607f821691505b602082108114156111a4576111a361126a565b5b50919050565b6111b3826112c8565b810181811067ffffffffffffffff821117156111d2576111d1611299565b5b80604052505050565b60006111e68261112c565b91506111f18361112c565b9250826112015761120061123b565b5b828206905092915050565b7f4e487b7100000000000000000000000000000000000000000000000000000000600052601160045260246000fd5b7f4e487b7100000000000000000000000000000000000000000000000000000000600052601260045260246000fd5b7f4e487b7100000000000000000000000000000000000000000000000000000000600052602260045260246000fd5b7f4e487b7100000000000000000000000000000000000000000000000000000000600052604160045260246000fd5b6000601f19601f8301169050919050565b7f7472616e7366657265642066696e616e63696572000000000000000000000000600082015250565b7f546869732063616e206f6e6c792062652063616c6c656420627920746865206360008201527f6f6e7472616374206f776e657221000000000000000000000000000000000000602082015250565b7f4661696c656420746f207769746864726177206d6f6e65792066726f6d20636f60008201527f6e74726163742e00000000000000000000000000000000000000000000000000602082015250565b7f547279696e6720746f207769746864726177206d6f7265206d6f6e657920746860008201527f616e207468657920636f6e7472616374206861732e0000000000000000000000602082015250565b50565b6113fb8161112c565b811461140657600080fd5b5056fea2646970667358221220fdec674dd20780bae93fc315eacaf1ca746e75e367afb5048b259906d397eef364736f6c63430008040033596f20796f2c204920616d206120636f6e747261637420616d204920616d20736d617274",
  "linkReferences": {},
  "deployedLinkReferences": {}
}